{
  "contractName": "DataStore",
  "abi": [
    {
      "constant": true,
      "inputs": [
        {
          "name": "addr",
          "type": "address"
        }
      ],
      "name": "getHistorical",
      "outputs": [
        {
          "name": "",
          "type": "string"
        }
      ],
      "payable": false,
      "stateMutability": "view",
      "type": "function"
    },
    {
      "constant": false,
      "inputs": [
        {
          "name": "addr",
          "type": "address"
        },
        {
          "name": "patient_id",
          "type": "string"
        },
        {
          "name": "hash",
          "type": "string"
        }
      ],
      "name": "setHistorical",
      "outputs": [
        {
          "name": "success",
          "type": "bool"
        }
      ],
      "payable": false,
      "stateMutability": "nonpayable",
      "type": "function"
    }
  ],
  "bytecode": "0x608060405234801561001057600080fd5b50610799806100206000396000f3fe60806040526004361061004c576000357c0100000000000000000000000000000000000000000000000000000000900463ffffffff1680636a090f6214610051578063fc9c2f771461011b575b600080fd5b34801561005d57600080fd5b506100a06004803603602081101561007457600080fd5b81019080803573ffffffffffffffffffffffffffffffffffffffff1690602001909291905050506102b2565b6040518080602001828103825283818151815260200191508051906020019080838360005b838110156100e05780820151818401526020810190506100c5565b50505050905090810190601f16801561010d5780820380516001836020036101000a031916815260200191505b509250505060405180910390f35b34801561012757600080fd5b506102986004803603606081101561013e57600080fd5b81019080803573ffffffffffffffffffffffffffffffffffffffff1690602001909291908035906020019064010000000081111561017b57600080fd5b82018360208201111561018d57600080fd5b803590602001918460018302840111640100000000831117156101af57600080fd5b91908080601f016020809104026020016040519081016040528093929190818152602001838380828437600081840152601f19601f8201169050808301925050505050505091929192908035906020019064010000000081111561021257600080fd5b82018360208201111561022457600080fd5b8035906020019184600183028401116401000000008311171561024657600080fd5b91908080601f016020809104026020016040519081016040528093929190818152602001838380828437600081840152601f19601f820116905080830192505050505050509192919290505050610392565b604051808215151515815260200191505060405180910390f35b60606000808373ffffffffffffffffffffffffffffffffffffffff1673ffffffffffffffffffffffffffffffffffffffff1681526020019081526020016000208054600181600116156101000203166002900480601f0160208091040260200160405190810160405280929190818152602001828054600181600116156101000203166002900480156103865780601f1061035b57610100808354040283529160200191610386565b820191906000526020600020905b81548152906001019060200180831161036957829003601f168201915b50505050509050919050565b60006103d4836040805190810160405280600181526020017f3a0000000000000000000000000000000000000000000000000000000000000081525084610431565b6000808673ffffffffffffffffffffffffffffffffffffffff1673ffffffffffffffffffffffffffffffffffffffff16815260200190815260200160002090805190602001906104259291906106c8565b50600190509392505050565b60608084905060608490506060849050606081518351855101016040519080825280601f01601f19166020018201604052801561047d5781602001600182028038833980820191505090505b509050606081905060008090506000809050600090505b86518110156105475786818151811015156104ab57fe5b9060200101517f010000000000000000000000000000000000000000000000000000000000000090047f010000000000000000000000000000000000000000000000000000000000000002838380600101945081518110151561050a57fe5b9060200101907effffffffffffffffffffffffffffffffffffffffffffffffffffffffffffff1916908160001a9053508080600101915050610494565b600090505b85518110156105ff57858181518110151561056357fe5b9060200101517f010000000000000000000000000000000000000000000000000000000000000090047f01000000000000000000000000000000000000000000000000000000000000000283838060010194508151811015156105c257fe5b9060200101907effffffffffffffffffffffffffffffffffffffffffffffffffffffffffffff1916908160001a905350808060010191505061054c565b600090505b84518110156106b757848181518110151561061b57fe5b9060200101517f010000000000000000000000000000000000000000000000000000000000000090047f010000000000000000000000000000000000000000000000000000000000000002838380600101945081518110151561067a57fe5b9060200101907effffffffffffffffffffffffffffffffffffffffffffffffffffffffffffff1916908160001a9053508080600101915050610604565b829750505050505050509392505050565b828054600181600116156101000203166002900490600052602060002090601f016020900481019282601f1061070957805160ff1916838001178555610737565b82800160010185558215610737579182015b8281111561073657825182559160200191906001019061071b565b5b5090506107449190610748565b5090565b61076a91905b8082111561076657600081600090555060010161074e565b5090565b9056fea165627a7a7230582034b0d37959e0bf1d50e09175d94148ed5f62cca039fd72d5526ca0637a3108220029",
  "source": "pragma solidity ^0.5.0;\n\ncontract DataStore {\n    mapping (address => string) medical_historical;\n\n    function getHistorical(address addr) public view returns(string memory) {\n        return medical_historical[addr];\n    }\n\n    function setHistorical(address addr, string memory patient_id, string memory hash) public returns(bool success) {\n        medical_historical[addr] = strConcat(patient_id, \":\", hash);\n        return true;\n    }\n\n    function strConcat(string memory _a, string memory _b, string memory _c) private returns (string memory) {\n        bytes memory _ba = bytes(_a);\n        bytes memory _bb = bytes(_b);\n        bytes memory _bc = bytes(_c);\n        string memory abc = new string(_ba.length + _bb.length + _bc.length);\n        bytes memory b_abc = bytes(abc);\n        uint k = 0;\n        uint i = 0;\n        for (i = 0; i < _ba.length; i++) b_abc[k++] = _ba[i];\n        for (i = 0; i < _bb.length; i++) b_abc[k++] = _bb[i];\n        for (i = 0; i < _bc.length; i++) b_abc[k++] = _bc[i];\n        return string(b_abc);\n    }\n}\n",
  "sourcePath": "/home/john/www/health-solution/health-api/contracts/DataStore.sol",
  "compiler": {
    "name": "solc",
    "version": "0.5.0+commit.1d4f565a.Emscripten.clang"
  },
  "schemaVersion": "3.0.9",
  "updatedAt": "2019-05-19T15:40:08.081Z",
  "devdoc": {
    "methods": {}
  },
  "userdoc": {
    "methods": {}
  }
}